:100000000C945D000C9485000C9485000C94850084
:100010000C9485000C9485000C9485000C9485004C
:100020000C9485000C9485000C9485000C9485003C
:100030000C9485000C9485000C9485000C9485002C
:100040000C94B8030C9485000C9428040C940204BE
:100050000C9485000C9485000C9485000C9485000C
:100060000C9485000C94850000000008000201003B
:100070000003040700000000000000000000000072
:10008000250028002B0000000000240027002A0083
:10009000040404040404040402020202020203032E
:1000A0000303030301020408102040800102040836
:1000B00010200102040810205A0411241FBECFEFA3
:1000C000D8E0DEBFCDBF11E0A0E0B1E0EEE1F1E1AC
:1000D00002C005900D92AA32B107D9F722E0AAE238
:1000E000B1E001C01D92A230B207E1F710E0CDE50A
:1000F000D0E004C02197FE010E948208CC35D107D0
:10010000C9F70E94C7040C948D080C94000090E07D
:10011000FC01EC55FF4F2491FC01E057FF4F849107
:10012000882399F090E0880F991FFC01EA57FF4F50
:10013000A591B491FC01E458FF4F859194918FB73C
:10014000F894EC91E22BEC938FBF089590E0FC01C2
:10015000E859FF4F3491FC01EC55FF4F2491FC010D
:10016000E057FF4FE491EE2309F43BC0332339F10C
:10017000333091F038F43130A9F0323001F584B5E4
:100180008F7D12C0373091F03830A1F03430B9F49F
:10019000809180008F7D03C0809180008F77809355
:1001A00080000DC084B58F7784BD09C08091B000F8
:1001B0008F7703C08091B0008F7D8093B000F0E016
:1001C000EE0FFF1FE458FF4FA591B4918FB7F8943D
:1001D000EC91611103C020952E2301C02E2B2C938E
:1001E0008FBF08953FB7F8948091370190913801FF
:1001F000A0913901B0913A0126B5A89B05C02F3FC7
:1002000019F00196A11DB11D3FBFBA2FA92F982F3C
:100210008827820F911DA11DB11DBC01CD0142E0B7
:10022000660F771F881F991F4A95D1F708951F936E
:10023000CF93DF93182FEB010E948700209711F4D2
:1002400060E004C0CF3FD10539F461E0812FDF9138
:10025000CF911F910C94A600E12FF0E0E859FF4FD9
:10026000E491E330F9F048F4E130B9F0E230A1F57F
:1002700084B5806284BDC8BD34C0E730E9F0E830A1
:1002800019F1E43049F5809180008062809380000C
:10029000D0938B00C0938A0024C084B5806884BD4D
:1002A000C7BD1FC080918000806880938000D0937C
:1002B0008900C093880015C08091B0008068809349
:1002C000B000C093B3000DC08091B00080628093F5
:1002D000B000C093B40005C0C038D1050CF0B5CF54
:1002E000AFCFDF91CF911F910895FC01538D448DC5
:1002F000252F30E0842F90E0821B930B541710F0D1
:10030000CF96089501970895FC01918D828D9817DD
:1003100061F0828DDF01A80FB11D5D968C91928DE9
:100320009F5F9F73928F90E008958FEF9FEF0895E6
:10033000FC01918D828D981731F0828DE80FF11DAF
:10034000858D90E008958FEF9FEF0895FC01918DCA
:10035000228D892F90E0805C9F4F821B91098F73C3
:1003600099270895FC01848DDF01A80FB11DA35AC0
:10037000BF4F2C91848D90E001968F739927848FC5
:10038000A689B7892C93A089B1898C9180648C93BC
:10039000938D848D981306C00288F389E02D8081A7
:1003A0008F7D80830895EF92FF920F931F93CF93D9
:1003B000DF93EC0181E0888F9B8D8C8D981305C0B5
:1003C000E889F989808185FD24C0F62E0B8D10E027
:1003D0000F5F1F4F0F731127E02E8C8DE8120CC09A
:1003E0000FB607FCFACFE889F989808185FFF5CF40
:1003F000CE010E94B201F1CF8B8DFE01E80FF11DFD
:10040000E35AFF4FF0820B8FEA89FB89808180627B
:1004100007C0EE89FF896083E889F989808180645B
:10042000808381E090E0DF91CF911F910F91FF9049
:10043000EF900895CF93DF93EC01888D8823C9F066
:10044000EA89FB89808185FD05C0A889B9898C91DD
:1004500086FD0FC00FB607FCF5CF808185FFF2CF78
:10046000A889B9898C9185FFEDCFCE010E94B20198
:10047000E7CFDF91CF9108958BE391E00E94A60131
:1004800021E0892B09F420E0822F089580E090E09C
:10049000892B29F00E943C0281110C9400000895E0
:1004A000CF92DF92EF92FF920F931F93CF93DF9340
:1004B0006C017A018B01C0E0D0E0CE15DF0589F038
:1004C000D8016D918D01D601ED91FC910190F081E3
:1004D000E02DC6010995892B11F47E0102C02196F9
:1004E000ECCFC701DF91CF911F910F91FF90EF905B
:1004F000DF90CF900895089580E090E008950097F0
:1005000069F0FC0101900020E9F73197AF01481B29
:10051000590BBC018BE391E00C94500280E090E019
:1005200008958F929F92AF92BF920F931F93CF9394
:10053000DF93CDB7DEB7A1970FB6F894DEBF0FBE3D
:10054000CDBF19A2423008F44AE08E010F5D1F4F63
:10055000842E912CA12CB12CA50194010E9460083D
:10056000E62FB901CA0101501109EA3014F4E05D27
:1005700001C0E95CD801EC93232B242B252B61F7D8
:10058000C8010E947F02A1960FB6F894DEBF0FBE8D
:10059000CDBFDF91CF911F910F91BF90AF909F90F2
:1005A0008F9008954F925F926F927F928F929F9259
:1005B000AF92BF92CF92DF92EF92FF926B017C01DC
:1005C000B42E9B01AC010E945B08882319F082E1E4
:1005D00091E027C026013701E89477F82FEF3FEF2D
:1005E0004FE75FE7C301B2010E945B0881110DC0B4
:1005F0002FEF3FEF4FE75FE7C301B2010E948A068A
:1006000018161CF486E191E00CC02FEF3FEF4FE786
:100610005FE4C701B6010E94E907181684F48AE175
:1006200091E0FF90EF90DF90CF90BF90AF909F90C0
:100630008F907F906F905F904F900C947F022FEF80
:100640003FEF4FE75FECC701B6010E948A0687FDC6
:10065000E6CF20E030E0A901C701B6010E948A067A
:1006600087FF11C0E0913B01F0913C010190F081C6
:10067000E02D6DE28BE391E009954C01F7FAF094DF
:10068000F7F8F09402C0812C912CA12C60E070E06E
:1006900080E09FE3AB1441F020E030E040E251E421
:1006A0000E948F06A394F6CF9B01AC01C701B6014F
:1006B0000E941E062B013C010E9408076B017C0171
:1006C0000E9437079B01AC01C301B2010E941D06C5
:1006D0002B013C014AE0C701B6010E9491027C0156
:1006E000E80CF91CBB2069F0E0913B01F0913C0162
:1006F0000190F081E02D6EE28BE391E00995E80E28
:10070000F91EDB2CDD2021F120E030E040E251E455
:10071000C301B2010E94EE072B013C010E940807B1
:100720004B01A12CB12C4AE0C501B4010E949102F9
:10073000E80EF91EC501B4010E9437079B01AC0108
:10074000C301B2010E941D062B013C01DA94DACFED
:10075000C701FF90EF90DF90CF90BF90AF909F9038
:100760008F907F906F905F904F9008950E948808BF
:100770001F920F920FB60F9211242F933F938F93D6
:100780009F93AF93BF938091330190913401A091D7
:100790003501B09136013091320123E0230F2D371E
:1007A00020F40196A11DB11D05C026E8230F029675
:1007B000A11DB11D20933201809333019093340128
:1007C000A0933501B09336018091370190913801A3
:1007D000A0913901B0913A010196A11DB11D8093FC
:1007E000370190933801A0933901B0933A01BF913A
:1007F000AF919F918F913F912F910F900FBE0F90CE
:100800001F9018951F920F920FB60F9211242F93DD
:100810003F934F935F936F937F938F939F93AF9388
:10082000BF93EF93FF938BE391E00E94B201FF919E
:10083000EF91BF91AF919F918F917F916F915F9158
:100840004F913F912F910F900FBE0F901F901895D1
:100850001F920F920FB60F9211242F938F939F9395
:10086000EF93FF93E0914B01F0914C018081E09177
:100870005101F091520182FD12C09081809154018A
:100880008F5F8F7320915501821751F0E0915401D1
:10089000F0E0E55CFE4F958F8093540101C08081AC
:1008A000FF91EF919F918F912F910F900FBE0F901D
:1008B0001F901895EBE3F1E01382128288EE93E02B
:1008C000A0E0B0E084839583A683B78384E091E0C1
:1008D0009183808385EC90E09587848784EC90E019
:1008E0009787868780EC90E0918B808B81EC90E0FD
:1008F000938B828B82EC90E0958B848B86EC90E0DE
:10090000978B868B118E128E138E148EE8EDF1E08C
:100910008EE191E09183808385E090E093838283F0
:1009200087E090E095838483178216821186108673
:1009300083E291E09387828783E090E095878487C4
:1009400084E090E097878687118A108A138A128A3A
:1009500080E090E0A0E8BFE3868F978FA0A3B1A3CB
:1009600080E090E0A0E0B0E482A393A3A4A3B5A3A9
:10097000158A148A168A178A108E118E128E138E7B
:10098000148E158E16A217A210A611A6089578949B
:1009900084B5826084BD84B5816084BD85B5826084
:1009A00085BD85B5816085BD80916E008160809335
:1009B0006E0010928100809181008260809381009E
:1009C00080918100816080938100809180008160AE
:1009D000809380008091B10084608093B100809109
:1009E000B00081608093B00080917A008460809331
:1009F0007A0080917A00826080937A0080917A00F8
:100A0000816080937A0080917A00806880937A0078
:100A10001092C10083E00E94870084E00E9487005A
:100A200085E00E94870087E00E948700E0914B01EB
:100A3000F0914C0182E08083E0914701F091480100
:100A40001082E0914901F0914A018FEC808310926D
:100A50005301E0914F01F091500186E08083E091D5
:100A60004D01F0914E01808180618083E0914D01C4
:100A7000F0914E01808188608083E0914D01F0917A
:100A80004E01808180688083E0914D01F0914E019C
:100A900080818F7D8083CFE7D0E08090FA019090B5
:100AA000FB01A090FC01B090FD0126E237E744E392
:100AB0005EE3C501B4010E948F066B017C01609367
:100AC000FE017093FF01809300029093010280E089
:100AD00090E0A0E0BFE38093F2019093F301A09334
:100AE000F401B093F501A50194016091F6017091B4
:100AF000F7018091F8019091F9010E948F064B0156
:100B00005C019B01AC01C701B6010E941D0620E0FB
:100B100030E040E05FE30E94EE072B013C01A501BD
:100B20009401C701B6010E941E069B01AC01C301DE
:100B3000B2010E948F066093EE017093EF018093E3
:100B4000F0019093F101D093EB01C093EA016FE7BC
:100B500070E08091E4010E94170120E030E04FE74F
:100B600053E46091EE017091EF018091F00190915A
:100B7000F1010E94EE070E9401077093E10160936A
:100B8000E0018091DA010E9417016091F2017091F9
:100B9000F3018091F4019091F50160932E0170931F
:100BA0002F018093300190933101C090EE01D090DD
:100BB000EF01E090F001F090F101C0922A01D09293
:100BC0002B01E0922C01F0922D0142E00E94D20212
:100BD00060912A0170912B0180912C0190912D013F
:100BE00042E00E94D2020E94F2004B015C0188EEBA
:100BF000C82E83E0D82EE12CF12C0E94F200DC01FB
:100C0000CB0188199909AA09BB09883E9340A1051F
:100C1000B10558F091E0C91AD108E108F108A8EE31
:100C20008A0EA3E09A1EA11CB11CC114D104E104D8
:100C3000F10419F70E94460230CF5058BB27AA276B
:100C40000E9435060C94AF070E94A10738F00E945D
:100C5000A80720F039F49F3F19F426F40C949E075E
:100C60000EF4E095E7FB0C949807E92F0E94C0076B
:100C700058F3BA17620773078407950720F079F4D1
:100C8000A6F50C94E2070EF4E0950B2EBA2FA02DDA
:100C90000B01B90190010C01CA01A0011124FF2729
:100CA000591B99F0593F50F4503E68F11A16F04024
:100CB000A22F232F342F4427585FF3CF4695379523
:100CC0002795A795F0405395C9F77EF41F16BA0BE8
:100CD000620B730B840BBAF09150A1F0FF0FBB1F96
:100CE000661F771F881FC2F70EC0BA0F621F731FDF
:100CF000841F48F4879577956795B795F7959E3F3C
:100D000008F0B0CF9395880F08F09927EE0F9795CC
:100D1000879508950E94740708F481E008950E9461
:100D2000A3060C94AF070E94A80758F00E94A107E1
:100D300040F029F45F3F29F00C94980751110C946E
:100D4000E3070C949E070E94C00768F39923B1F350
:100D5000552391F3951B550BBB27AA2762177307E1
:100D6000840738F09F5F5F4F220F331F441FAA1F75
:100D7000A9F335D00E2E3AF0E0E832D09150504031
:100D8000E695001CCAF72BD0FE2F29D0660F771FDF
:100D9000881FBB1F261737074807AB07B0E809F0C5
:100DA000BB0B802DBF01FF2793585F4F3AF09E3F4A
:100DB000510578F00C9498070C94E3075F3FE4F337
:100DC000983ED4F3869577956795B795F7959F5F8D
:100DD000C9F7880F911D9695879597F90895E1E0D9
:100DE000660F771F881FBB1F621773078407BA0738
:100DF00020F0621B730B840BBA0BEE1F88F7E09593
:100E000008950E9408076894B1110C94E3070895AF
:100E10000E94C80788F09F5798F0B92F9927B751BB
:100E2000B0F0E1F0660F771F881F991F1AF0BA958E
:100E3000C9F714C0B13091F00E94E207B1E0089503
:100E40000C94E207672F782F8827B85F39F0B93FF5
:100E5000CCF3869577956795B395D9F73EF4909541
:100E60008095709561957F4F8F4F9F4F0895E894BF
:100E700009C097FB3EF490958095709561957F4FE2
:100E80008F4F9F4F9923A9F0F92F96E9BB27939590
:100E9000F695879577956795B795F111F8CFFAF4A0
:100EA000BB0F11F460FF1BC06F5F7F4F8F4F9F4FD1
:100EB00016C0882311F096E911C0772321F09EE82F
:100EC000872F762F05C0662371F096E8862F70E095
:100ED00060E02AF09A95660F771F881FDAF7880F6F
:100EE0009695879597F90895990F0008550FAA0BC5
:100EF000E0E8FEEF16161706E807F907C0F012162D
:100F00001306E407F50798F0621B730B840B950B2F
:100F100039F40A2661F0232B242B252B21F4089584
:100F20000A2609F4A140A6958FEF811D811D089521
:100F300097F99F6780E870E060E008959FEF80EC8C
:100F4000089500240A94161617061806090608952F
:100F500000240A9412161306140605060895092E95
:100F60000394000C11F4882352F0BB0F40F4BF2B04
:100F700011F460FF04C06F5F7F4F8F4F9F4F089544
:100F800057FD9058440F551F59F05F3F71F047953A
:100F9000880F97FB991F61F09F3F79F0879508951F
:100FA000121613061406551FF2CF4695F1DF08C03E
:100FB000161617061806991FF1CF8695710561055B
:100FC00008940895E894BB2766277727CB0197F903
:100FD00008950E94740708F48FEF08950E94010895
:100FE0000C94AF070E94A10738F00E94A80720F0D8
:100FF000952311F00C9498070C949E0711240C94DF
:10100000E3070E94C00770F3959FC1F3950F50E06E
:10101000551F629FF001729FBB27F00DB11D639FAA
:10102000AA27F00DB11DAA1F649F6627B00DA11D50
:10103000661F829F2227B00DA11D621F739FB00DF6
:10104000A11D621F839FA00D611D221F749F332766
:10105000A00D611D231F849F600D211D822F762FFF
:101060006A2F11249F5750409AF0F1F088234AF0DC
:10107000EE0FFF1FBB1F661F771F881F9150504048
:10108000A9F79E3F510580F00C9498070C94E30754
:101090005F3FE4F3983ED4F3869577956795B795CF
:1010A000F795E7959F5FC1F7FE2B880F911D9695E9
:1010B000879597F908950E947407880B990B0895F6
:1010C000A1E21A2EAA1BBB1BFD010DC0AA1FBB1F4C
:1010D000EE1FFF1FA217B307E407F50720F0A21BBE
:1010E000B30BE40BF50B661F771F881F991F1A942B
:1010F00069F760957095809590959B01AC01BD0155
:10110000CF010895EE0FFF1F0590F491E02D099493
:0E11100081E090E0F8940C948D08F894FFCFE5
:10111E0000000000D301500275011A02A6018401DD
:10112E0098016E616E00696E66006F7666006C6582
:0A113E0066740072696768740000AF
:00000001FF
